{"abi":[{"type":"constructor","inputs":[{"name":"_tokenAddress","type":"address","internalType":"address"}],"stateMutability":"nonpayable"},{"type":"function","name":"addLiquidity","inputs":[{"name":"_tokenAmount","type":"uint256","internalType":"uint256"}],"outputs":[],"stateMutability":"payable"},{"type":"function","name":"balanceLp","inputs":[{"name":"","type":"address","internalType":"address"}],"outputs":[{"name":"","type":"uint256","internalType":"uint256"}],"stateMutability":"view"},{"type":"function","name":"ethAmount","inputs":[],"outputs":[{"name":"","type":"uint256","internalType":"uint256"}],"stateMutability":"view"},{"type":"function","name":"removeLiquidity","inputs":[{"name":"_lpAmount","type":"uint256","internalType":"uint256"}],"outputs":[],"stateMutability":"nonpayable"},{"type":"function","name":"tokenAddress","inputs":[],"outputs":[{"name":"","type":"address","internalType":"address"}],"stateMutability":"view"},{"type":"function","name":"tokenAmount","inputs":[],"outputs":[{"name":"","type":"uint256","internalType":"uint256"}],"stateMutability":"view"},{"type":"function","name":"totalLp","inputs":[],"outputs":[{"name":"","type":"uint256","internalType":"uint256"}],"stateMutability":"view"}],"bytecode":{"object":"0x60806040525f6001555f600255348015610017575f5ffd5b506040516111ab3803806111ab833981810160405281019061003991906100dc565b805f5f6101000a81548173ffffffffffffffffffffffffffffffffffffffff021916908373ffffffffffffffffffffffffffffffffffffffff16021790555050610107565b5f5ffd5b5f73ffffffffffffffffffffffffffffffffffffffff82169050919050565b5f6100ab82610082565b9050919050565b6100bb816100a1565b81146100c5575f5ffd5b50565b5f815190506100d6816100b2565b92915050565b5f602082840312156100f1576100f061007e565b5b5f6100fe848285016100c8565b91505092915050565b611097806101145f395ff3fe60806040526004361061006f575f3560e01c80639c8f9f231161004d5780639c8f9f23146100f55780639d76ea581461011d578063c98166c014610147578063eec7faa1146101715761006f565b8063242c135d1461007357806351c6590a1461009d57806379fb74ed146100b9575b5f5ffd5b34801561007e575f5ffd5b5061008761019b565b6040516100949190610ad6565b60405180910390f35b6100b760048036038101906100b29190610b1d565b6101a1565b005b3480156100c4575f5ffd5b506100df60048036038101906100da9190610ba2565b6105d7565b6040516100ec9190610ad6565b60405180910390f35b348015610100575f5ffd5b5061011b60048036038101906101169190610b1d565b6105ec565b005b348015610128575f5ffd5b506101316108ba565b60405161013e9190610bdc565b60405180910390f35b348015610152575f5ffd5b5061015b6108de565b6040516101689190610ad6565b60405180910390f35b34801561017c575f5ffd5b506101856108e4565b6040516101929190610ad6565b60405180910390f35b60035481565b5f34116101e3576040517f08c379a00000000000000000000000000000000000000000000000000000000081526004016101da90610c4f565b60405180910390fd5b5f6001541480156101f557505f600254145b1561039957346001546102089190610c9a565b6001819055505f5f5f9054906101000a900473ffffffffffffffffffffffffffffffffffffffff1673ffffffffffffffffffffffffffffffffffffffff166323b872dd3330856040518463ffffffff1660e01b815260040161026c93929190610ccd565b6020604051808303815f875af1158015610288573d5f5f3e3d5ffd5b505050506040513d601f19601f820116820180604052508101906102ac9190610d37565b9050806102ee576040517f08c379a00000000000000000000000000000000000000000000000000000000081526004016102e590610dac565b60405180910390fd5b816002546102fc9190610c9a565b60028190555061031682346103119190610dca565b6108ea565b60045f3373ffffffffffffffffffffffffffffffffffffffff1673ffffffffffffffffffffffffffffffffffffffff1681526020019081526020015f205f8282546103619190610c9a565b9250508190555061037c82346103779190610dca565b6108ea565b60035f82825461038c9190610c9a565b92505081905550506105d4565b5f600154600254346103ab9190610dca565b6103b59190610e38565b90508082101580156103d357506001816103cf9190610c9a565b8211155b610412576040517f08c379a000000000000000000000000000000000000000000000000000000000815260040161040990610ed8565b60405180910390fd5b5f5f5f600154600354346104269190610dca565b6104309190610e38565b9150600254600354866104439190610dca565b61044d9190610e38565b90506104598282610a84565b92508260035f82825461046c9190610c9a565b925050819055508260045f3373ffffffffffffffffffffffffffffffffffffffff1673ffffffffffffffffffffffffffffffffffffffff1681526020019081526020015f205f8282546104bf9190610c9a565b925050819055505f5f5f9054906101000a900473ffffffffffffffffffffffffffffffffffffffff1673ffffffffffffffffffffffffffffffffffffffff166323b872dd3330896040518463ffffffff1660e01b815260040161052493929190610ccd565b6020604051808303815f875af1158015610540573d5f5f3e3d5ffd5b505050506040513d601f19601f820116820180604052508101906105649190610d37565b9050806105a6576040517f08c379a000000000000000000000000000000000000000000000000000000000815260040161059d90610dac565b60405180910390fd5b346001546105b49190610c9a565b600181905550856002546105c89190610c9a565b60028190555050505050505b50565b6004602052805f5260405f205f915090505481565b60045f3373ffffffffffffffffffffffffffffffffffffffff1673ffffffffffffffffffffffffffffffffffffffff1681526020019081526020015f2054811115610635575f5ffd5b5f8111610640575f5ffd5b5f600354826001546106529190610dca565b61065c9190610e38565b90505f600354836002546106709190610dca565b61067a9190610e38565b90505f8211610687575f5ffd5b5f8111610692575f5ffd5b8160015f8282546106a39190610ef6565b925050819055508060025f8282546106bb9190610ef6565b925050819055508260045f3373ffffffffffffffffffffffffffffffffffffffff1673ffffffffffffffffffffffffffffffffffffffff1681526020019081526020015f205f82825461070e9190610ef6565b925050819055508260035f8282546107269190610ef6565b925050819055505f5f5f9054906101000a900473ffffffffffffffffffffffffffffffffffffffff1673ffffffffffffffffffffffffffffffffffffffff1663a9059cbb33846040518363ffffffff1660e01b8152600401610789929190610f29565b6020604051808303815f875af11580156107a5573d5f5f3e3d5ffd5b505050506040513d601f19601f820116820180604052508101906107c99190610d37565b90508061080b576040517f08c379a000000000000000000000000000000000000000000000000000000000815260040161080290610f9a565b60405180910390fd5b5f3373ffffffffffffffffffffffffffffffffffffffff168460405161083090610fe5565b5f6040518083038185875af1925050503d805f811461086a576040519150601f19603f3d011682016040523d82523d5f602084013e61086f565b606091505b50509050806108b3576040517f08c379a00000000000000000000000000000000000000000000000000000000081526004016108aa90611043565b60405180910390fd5b5050505050565b5f5f9054906101000a900473ffffffffffffffffffffffffffffffffffffffff1681565b60015481565b60025481565b5f600182116108fb57819050610a7f565b5f8290505f60019050700100000000000000000000000000000000821061092b57608082901c9150604081901b90505b68010000000000000000821061094a57604082901c9150602081901b90505b640100000000821061096557602082901c9150601081901b90505b62010000821061097e57601082901c9150600881901b90505b610100821061099657600882901c9150600481901b90505b601082106109ad57600482901c9150600281901b90505b600482106109bd57600181901b90505b600181600302901c905060018185816109d9576109d8610e0b565b5b048201901c905060018185816109f2576109f1610e0b565b5b048201901c90506001818581610a0b57610a0a610e0b565b5b048201901c90506001818581610a2457610a23610e0b565b5b048201901c90506001818581610a3d57610a3c610e0b565b5b048201901c90506001818581610a5657610a55610e0b565b5b048201901c9050610a78818581610a7057610a6f610e0b565b5b048211610a9a565b8103925050505b919050565b5f610a928284108484610aa5565b905092915050565b5f8115159050919050565b5f610aaf84610a9a565b82841802821890509392505050565b5f819050919050565b610ad081610abe565b82525050565b5f602082019050610ae95f830184610ac7565b92915050565b5f5ffd5b610afc81610abe565b8114610b06575f5ffd5b50565b5f81359050610b1781610af3565b92915050565b5f60208284031215610b3257610b31610aef565b5b5f610b3f84828501610b09565b91505092915050565b5f73ffffffffffffffffffffffffffffffffffffffff82169050919050565b5f610b7182610b48565b9050919050565b610b8181610b67565b8114610b8b575f5ffd5b50565b5f81359050610b9c81610b78565b92915050565b5f60208284031215610bb757610bb6610aef565b5b5f610bc484828501610b8e565b91505092915050565b610bd681610b67565b82525050565b5f602082019050610bef5f830184610bcd565b92915050565b5f82825260208201905092915050565b7f657468416d6f756e742063616e6e6f74206265207a65726f00000000000000005f82015250565b5f610c39601883610bf5565b9150610c4482610c05565b602082019050919050565b5f6020820190508181035f830152610c6681610c2d565b9050919050565b7f4e487b71000000000000000000000000000000000000000000000000000000005f52601160045260245ffd5b5f610ca482610abe565b9150610caf83610abe565b9250828201905080821115610cc757610cc6610c6d565b5b92915050565b5f606082019050610ce05f830186610bcd565b610ced6020830185610bcd565b610cfa6040830184610ac7565b949350505050565b5f8115159050919050565b610d1681610d02565b8114610d20575f5ffd5b50565b5f81519050610d3181610d0d565b92915050565b5f60208284031215610d4c57610d4b610aef565b5b5f610d5984828501610d23565b91505092915050565b7f546f6b656e207472616e73666572206661696c656400000000000000000000005f82015250565b5f610d96601583610bf5565b9150610da182610d62565b602082019050919050565b5f6020820190508181035f830152610dc381610d8a565b9050919050565b5f610dd482610abe565b9150610ddf83610abe565b9250828202610ded81610abe565b91508282048414831517610e0457610e03610c6d565b5b5092915050565b7f4e487b71000000000000000000000000000000000000000000000000000000005f52601260045260245ffd5b5f610e4282610abe565b9150610e4d83610abe565b925082610e5d57610e5c610e0b565b5b828204905092915050565b7f57726f6e6720746f6b656e20616d6f756e7420666f72207468697320726174695f8201527f6f00000000000000000000000000000000000000000000000000000000000000602082015250565b5f610ec2602183610bf5565b9150610ecd82610e68565b604082019050919050565b5f6020820190508181035f830152610eef81610eb6565b9050919050565b5f610f0082610abe565b9150610f0b83610abe565b9250828203905081811115610f2357610f22610c6d565b5b92915050565b5f604082019050610f3c5f830185610bcd565b610f496020830184610ac7565b9392505050565b7f746f6b656e207472616e73666572206661696c656400000000000000000000005f82015250565b5f610f84601583610bf5565b9150610f8f82610f50565b602082019050919050565b5f6020820190508181035f830152610fb181610f78565b9050919050565b5f81905092915050565b50565b5f610fd05f83610fb8565b9150610fdb82610fc2565b5f82019050919050565b5f610fef82610fc5565b9150819050919050565b7f657468207472616e73666572206661696c6564000000000000000000000000005f82015250565b5f61102d601383610bf5565b915061103882610ff9565b602082019050919050565b5f6020820190508181035f83015261105a81611021565b905091905056fea2646970667358221220df4d091fa68e1d48a82e46d6e7b4517e8ed337b745baaa528e92176ab06d55a164736f6c634300081e0033","linkReferences":{}},"methodIdentifiers":{"addLiquidity(uint256)":"51c6590a","balanceLp(address)":"79fb74ed","ethAmount()":"c98166c0","removeLiquidity(uint256)":"9c8f9f23","tokenAddress()":"9d76ea58","tokenAmount()":"eec7faa1","totalLp()":"242c135d"},"id":4}